:020000040800F2
:10000000701300200D020008C32E00081B2C0008EE
:10001000BD2E0008AF040008F536000800000000FF
:10002000000000000000000000000000892F000810
:1000300001050008000000005D2F00088B2F00085C
:1000400027020008270200082702000827020008EC
:1000500027020008270200082702000827020008DC
:1000600027020008270200082702000827020008CC
:100070002702000827020008B5040008C50400088C
:1000800027020008270200082702000827020008AC
:10009000270200082702000827020008270200089C
:1000A000270200082702000827020008270200088C
:1000B000270200082702000827020008270200087C
:1000C000270200082702000827020008270200086C
:1000D00027020008E536000827020008270200086A
:1000E000270200082702000827020008270200084C
:1000F000270200082702000827020008270200083C
:10010000270200082702000827020008270200082B
:10011000270200082702000827020008270200081B
:10012000270200082702000827020008270200080B
:1001300000F002F800F05AF80AA090E8000C82449F
:100140008344AAF10107DA4501D100F04FF8AFF27C
:10015000090EBAE80F0013F0010F18BFFB1A43F0A5
:1001600001031847243B0000443B00000A444FF0C1
:10017000000C10F8013B13F0070408BF10F8014B06
:100180001D1108BF10F8015B641E05D010F8016B4B
:10019000641E01F8016BF9D113F0080F1EBF10F8AF
:1001A000014BAD1C0C1B09D16D1E58BF01F801CBD2
:1001B000FAD505E014F8016B01F8016B6D1EF9D555
:1001C0009142D6D37047000000230024002500266A
:1001D000103A28BF78C1FBD8520728BF30C148BFAA
:1001E0000B6070471FB51FBD10B510BD00F0F1F8D2
:1001F0001146FFF7F7FF03F0DDFA00F00FF903B443
:10020000FFF7F2FF03BC00F017F900000948804730
:1002100009480047FEE7FEE7FEE7FEE7FEE7FEE7E8
:10022000FEE7FEE7FEE7FEE704480549054A064B00
:1002300070470000FD2F000831010008700D0020FC
:1002400070130020700F0020700F0020032A40F26E
:10025000308010F0030C00F0158011F8013BBCF168
:10026000020F624498BF11F801CB00F8013B38BF80
:1002700011F8013BA2F1040298BF00F801CB38BF8E
:1002800000F8013B11F0030300F07180083AC0F060
:10029000088051F8043B083A51F804CBA0E8081054
:1002A000F5E7121D5CBF51F8043B40F8043BAFF387
:1002B0000080D20724BF11F8013B11F801CB48BFE1
:1002C00011F8012B24BF00F8013B00F801CB48BF17
:1002D00000F8012B70474FF000020429C0F0128093
:1002E00010F0030C00F01B80CCF1040CBCF1020FE9
:1002F00018BF00F8012BA8BF20F8022BA1EB0C01BE
:1003000000F00DB85FEAC17C24BF00F8012B00F8B3
:10031000012B48BF00F8012B70474FF0000200B5D9
:10032000134694469646203922BFA0E80C50A0E818
:100330000C50B1F12001BFF4F7AF090728BFA0E8C6
:100340000C5048BF0CC05DF804EB890028BF40F892
:10035000042B08BF704748BF20F8022B11F0804FD4
:1003600018BF00F8012B704770477047704710B5F1
:10037000203AC0F00B80B1E81850203AA0E818509D
:10038000B1E81850A0E81850BFF4F5AF5FEA027C5E
:1003900024BFB1E81850A0E8185044BF18C918C0CD
:1003A000BDE810405FEA827C24BF51F8043B40F86E
:1003B000043B08BF7047D20728BF31F8023B48BF53
:1003C00011F8012B28BF20F8023B48BF00F8012B91
:1003D0007047754600F02CF8AE4605006946534656
:1003E00020F00700854618B020B5FFF71DFFBDE8D7
:1003F00020404FF000064FF000074FF000084FF08C
:10040000000B21F00701AC46ACE8C009ACE8C0091C
:10041000ACE8C009ACE8C0098D46704710B5044689
:10042000AFF300802046BDE81040FFF7E8BE0000B3
:1004300000487047100D002001491820ABBEFEE7B0
:10044000260002007047000010B50C4803F09AFA2D
:1004500001220B490A2003F065FA01220949142000
:1004600003F060FA012208494FF47A7003F05AFA57
:100470000121064803F032FA10BD0000AD0C00085F
:10048000100000201800002020000020280000207C
:1004900010B572B600F00AF800F09CFA00F092FA7B
:1004A00002F00EFDFFF7D0FF62B610BD704700BF2F
:1004B000FEE7000010B5024800F0E6FE10BD0000A7
:1004C0008805002010B5024800F0DEFE10BD0000D7
:1004D0004405002030B590F840500124AC40C56B75
:1004E0006C60046863604468102C04D10468A260E6
:1004F0000468E16003E00468A1600468E26030BD64
:10050000704770B50546002400BF07E0691C01EB89
:10051000C4108021FFF7DFFE601CC4B2082CF5DB9D
:1005200070BD2DE9F04F06460C4615461F46DDF816
:1005300024C0E019802801DAE01900E0802000F0F2
:10054000FF0805EB0C00402802DA05EB0C0000E088
:10055000402000F0FF0923462FE0284629E04FEA1B
:10056000E07A00EB5A7A4FEAEA0B06F1010A0AEB4D
:10057000CB1A1AF803A002464FEAE07B00EB5B7B44
:100580004FEAEB0BA0EBCB0E4FF0010B0BFA0EFB7F
:100590002AEA0B0A01464FEAE07B00EB5B7B4FEA5D
:1005A000EB0B06F1010E0EEBCB1B0BF803A0411C6D
:1005B000C8B24845D3DB581CC3B24345CDDBBDE8C8
:1005C000F08F0000FCB505460E4617461C46A4F108
:1005D000200000EB4000064901EB40000821062303
:1005E0003A46CDE900103146284600F003F8FCBD3C
:1005F0004E3A00082DE9F84F06460D4614461F46B0
:10060000DDE90A897F2D01D93F2C06D8E8197F281A
:1006100005D904EB08003F2801D9BDE8F88F3B4617
:10062000224629463046CDF80080FFF77AFF0020A9
:1006300067E0002161E022464FEAE47C04EB5C7C49
:1006400000EBEC0A06F1010C0CEBCA1C05EB010AED
:100650001CF80AC023464FEAE47A04EB5A7A4FEAC0
:10066000EA0AA4EBCA0A07FB001B19F80BB00BFA45
:100670000AFB4CEA0B0C4FEAE47A04EB5A7A00EBE3
:10068000EA0B06F1010A0AEBCB1A05EB010B0AF89B
:100690000BC04FEAE47C04EB5C7C00EBEC0C0CF14F
:1006A000010C06F1010A0AEBCC1C05EB010A1CF84F
:1006B0000AC04FEAE47A04EB5A7A4FEAEA0AA4EB5A
:1006C000CA0ACAF1080A07FB001B19F80BB04BFA5B
:1006D0000AFB4CEA0B0C4FEAE47A04EB5A7A00EB83
:1006E000EA0A0AF1010A06F1010B0BEBCA1A05EB43
:1006F000010B0AF80BC04A1CD1B2B9429BDB411C6A
:10070000C8B2A8F10101CA1701EB5272012303EB31
:10071000E20282428DDC00BF7FE72DE9F047804690
:100720000C4691461D46089F002D09DA2D234A46A6
:1007300021464046FFF746FFA01DC4B26D4207E0C8
:100740002B234A4621464046FFF73CFFA01DC4B27A
:1007500000261AE0B81B401EC1B20A2000F032F891
:10076000B5FBF0F00A21B0FBF1F201FB120000F141
:10077000300A06EB460004EB4000C1B253464A463D
:100780004046FFF71FFF701CC6B2BE42E2DBBDE869
:10079000F0872DE9F04107460E4690461D4600249D
:1007A0000BE02B5D04EB440006EB4000C1B2424677
:1007B0003846FFF707FF601CC4B2285D0028F0D15F
:1007C000BDE8F08110B50246012000E050430B1E49
:1007D000A1F10104E1B2F9D110BD70B505460024C4
:1007E00000BF16E004F1B000C1B2284600F014F8D2
:1007F0000021284600F010F81021284600F00CF8DF
:10080000681C00EBC4118022284600F02CF8601C04
:10081000C4B2082CE6DB70BD70B504460D46D4F8B2
:10082000040400F047F92178D4F8040400F01EF91C
:10083000D4F8040400F06EF90021D4F8040400F0A8
:1008400015F9D4F8040400F065F92946D4F8040435
:1008500000F00CF9D4F8040400F05CF9D4F80404B6
:1008600000F040F970BD2DE9F04104460E461746F0
:10087000D4F8040400F01EF92178D4F8040400F040
:10088000F5F8D4F8040400F045F94021D4F8040444
:1008900000F0ECF8D4F8040400F03CF900250AE07C
:1008A000715DD4F8040400F0E1F8D4F8040400F019
:1008B00031F9681CC5B2BD42F2DBD4F8040400F083
:1008C00011F9BDE8F08110B504460020D4F80C14ED
:1008D00088470020D4F808148847D4F804044168F5
:1008E00044F6206088470120D4F808148847AE21D8
:1008F0002046FFF791FFD5212046FFF78DFF80218D
:100900002046FFF789FFA8212046FFF785FF3F21FA
:100910002046FFF781FFD3212046FFF77DFF00210E
:100920002046FFF779FF40212046FFF775FFA12100
:100930002046FFF771FFDA212046FFF76DFF1221F5
:100940002046FFF769FF81212046FFF765FFEF2171
:100950002046FFF761FFD9212046FFF75DFFF12117
:100960002046FFF759FFDB212046FFF755FF3021D6
:100970002046FFF751FF20212046FFF74DFF0221BF
:100980002046FFF749FFC8212046FFF745FFA42175
:100990002046FFF741FFA6212046FFF73DFF8D21AE
:1009A0002046FFF739FF14212046FFF735FFAF211E
:1009B0002046FFF731FF2046FFF7A3FD2046FFF753
:1009C0000CFF10BD10B50248FFF77DFF10BD000001
:1009D000A000002010B5114801F050FD104800F0B3
:1009E00069FA1049104800F074F90F49B1F808226B
:1009F000086801F2071101F086FD0B480068C06B22
:100A00000068006820F0040007490968C96B09689C
:100A10000860064800F09BF810BD0000B4040020F8
:100A200061310008FC040020C80600207C00002082
:100A30002DE9F04106460C48006880470446002531
:100A400000270DE00848006880470546A54202DB04
:100A5000281B87B204E04FF6FF70001B284487B2C2
:100A6000B742EFDBBDE8F081300000202DE9F04116
:100A700004460D468027002600BF17E005EA07025E
:100A8000D011E16888476806050E207861688847BC
:100A90000120A16888472078616888470020A16804
:100AA0008847207861688847701CC6B2082EE5D355
:100AB000BDE8F08110B504460120E16888470120B7
:100AC000A16888472078616888470020E1688847E6
:100AD0002078616888470020A1688847207861688D
:100AE000884710BD10B504460020E1688847002003
:100AF000A16888472078616888470120A1688847F5
:100B00002078616888470120E1688847207861681B
:100B1000884710BD70B5044600250120E16888476C
:100B20002078616888470120A1688847207861683B
:100B300088472069804708B1012500E00025002092
:100B4000A1688847207861688847284670BD18B139
:100B5000016809B1017901B97047002141718171C2
:100B600000BFF9E72DE9F04704460025A846A9464D
:100B700000270CB9BDE8F08700263CE0C6EBC601B3
:100B8000206800EB8105286880478046E87B404567
:100B900005D085F80F80A0688047A86029E0E87B31
:100BA0002979884212D1A0688047A968401AA9898A
:100BB000884202D30220A8731BE0A0688047A9687E
:100BC000401A142815D30120A87312E009F101007E
:100BD00000F0FF09A87B38B1781CC7B26079012109
:100BE000B1400843607104E061790120B040814365
:100BF0006171701CC6B22079B042BFDC20794845D3
:100C000008D13FB1012F01D1012000E00220A071E5
:100C1000002701E00020A071A079012802D002285D
:100C200034D11EE0002618E0C6EBC601206800EBB8
:100C30008105A87B012804D1686948B168698047AB
:100C400006E0A87B022803D1A86908B1A8698047FB
:100C50000020A873A071701CC6B22079B042E3DCFA
:100C600015E0E06808B1E0688047002008E0C0EBCC
:100C7000C002216801EB82050021A973411CC8B2A2
:100C800021798142F3DC0020A07100E000BF00BFA9
:100C900000BF6FE70448D0E900305A1C40F1000063
:100CA0000149C1E90020704738000020014903C90B
:100CB000704700003800002010B5044604B910BD8C
:100CC00004F22C4000F01CF90020A4F80A0200BF36
:100CD000F5E770B504460D4604B970BD25604FF4C4
:100CE0008070A4F80802A4F80401420004F50A7117
:100CF00004F5037000F054F9012084F80601420263
:100D000004F5896104F22C4000F04AF90020A4F8AF
:100D10000A0200BFE1E770B504460D4604B105B90B
:100D200070BDB4F80A02281A86B2B4F80A2204F296
:100D300007101118324604F22C4000F045F9B5F5C1
:100D4000807F01D1002000E02846A4F80A0200BFFD
:100D5000E6E770B504460D4616460CB105B116B966
:100D60004FF0FF3070BD3246294604F22C4000F0AF
:100D7000D6F8F7E738B5044600250020009004B9FE
:100D800038BD94F8290494F82814884204D101202D
:100D900084F806010020F3E70222694604F5037097
:100DA00000F0BDF805460DB10020E9E7BDF80020D0
:100DB000211D04F5037000F0B2F805460DB10020C6
:100DC000DEE794F82904401C84F82904BDF80000EB
:100DD000D6E7F7B504460D4600261CB115B1BDF89F
:100DE000080010B94FF0FF30FEBD94F80601C8B1FD
:100DF000BDF808202946201DFFF728FABDF8082075
:100E0000211D206801F09EFE2068806B006800684C
:100E100020F004002168896B09680860002084F8CC
:100E2000060145E0022202A904F5037000F0CCF8A7
:100E3000064616B14FF0FF30D6E7BDF80820294628
:100E400004F5037000F0C0F806463EB1022104F537
:100E5000037000F038F84FF0FF30C5E794F828042D
:100E6000401C84F8280494F8060108B304F50370C4
:100E700000F046F894F82804401E84F82804BDF8D1
:100E800008202946201DFFF7E1F9BDF80820211DA3
:100E9000206801F057FE2068806B0068006820F031
:100EA00004002168896B09680860002084F8060145
:100EB000002099E708B10149086070473000002020
:100EC00072B600BFFEE710B5024612B94FF0FF3010
:100ED00010BD5089884200DA518910694318506862
:100EE000984204D2D2E900041C1B2044431E136123
:100EF0001089084410815089401A508108B2E7E7F0
:100F000000B9704781880288891A491C0181002133
:100F10004181016801610168416100BFF1E72DE98C
:100F2000F04104460F4615460CB107B11DB94FF00C
:100F3000FF30BDE8F0816089A84202DA6FF001005D
:100F4000F7E761682069884201D920682061A0889C
:100F5000218A401A401C86B2AE4209DB2E46324638
:100F600038462169FFF772F92069304420610FE0AB
:100F7000A81B1FFA80F8324638462169FFF766F948
:100F8000B81942462168FFF761F9206840442061A2
:100F90002089284420816089401B60810020C8E7A7
:100FA00003460BB101B112B94FF0FF307047196021
:100FB0008818401E58601A81002058819A81196152
:100FC0005961986100BFF1E72DE9F04104460F46F1
:100FD00015460CB107B11DB94FF0FF30BDE8F081E7
:100FE0002089A84205DAA069401CA0616FF00100C9
:100FF000F4E761686069884201D920686061A0886F
:10100000A18A401A401C86B2AE4209DB2E46324607
:1010100039466069FFF71AF96069304460610FE092
:10102000A81B1FFA80F8324639466069FFF70EF9AF
:10103000B91942462068FFF709F920684044606109
:101040002089401B20816089284460810020C5E7F9
:10105000014611B94FF0FF307047488900B2FBE7F5
:1010600010B50421014800F00FFD10BD0010014033
:1010700010B50821014800F007FD10BD0010014027
:101080000146002291F82100022808D0042088633C
:1010900000BF002081F8200000BF012070470868D1
:1010A000006820F00E000B6818600868006820F0E7
:1010B00001000B68186091F8403001209840CB6B1C
:1010C0005860012081F8210000BF002081F8200035
:1010D00000BF1046E2E7000070B50446002594F812
:1010E0002100022803D00420A0630125C1E020686C
:1010F000006820F00E00216808602068006820F079
:101100000100216808605C492068884252D95A4928
:1011100078392068884201D1012047E05649643976
:101120002068884201D1102040E05349503920689E
:10113000884201D1801539E04F493C392068884206
:1011400001D1801432E04C4928392068884202D10C
:101150004FF480302AE0484914392068884202D18F
:101160004FF4801022E044492068884201D14004B5
:101170001CE042492068884201D1012016E03F4925
:1011800014312068884201D110200FE03B492831FA
:101190002068884201D1801508E038493C31206838
:1011A000884201D1801401E04FF480303349091F97
:1011B000086051E0304978392068884201D1012027
:1011C00047E02D4964392068884201D1102040E071
:1011D000294950392068884201D1801539E02649D3
:1011E0003C392068884201D1801432E022492839F4
:1011F0002068884202D14FF480302AE01E49143919
:101200002068884202D14FF4801022E01A492068F9
:10121000884201D140041CE018492068884201D16D
:10122000012016E0154914312068884201D11020B0
:101230000FE0124928312068884201D1801508E06A
:101240000E493C312068884201D1801401E04FF4FE
:101250008030094980394860012084F8210000BFAE
:10126000002084F8200000BF606B10B12046616B45
:101270008847284670BD00008000024008040240F4
:101280000146886B7047000070B50446E06B056846
:101290002068066894F84010042088402840002800
:1012A00075D006F004000028FAD02068006800F02D
:1012B000200028B92068006820F004002168086038
:1012C000D5492068884254D9D34978392068884262
:1012D00001D1042049E0D04964392068884201D115
:1012E000402042E0CC4950392068884201D10015A5
:1012F0003BE0C9493C392068884202D14FF4804024
:1013000033E0C54928392068884202D14FF4802053
:101310002BE0C14914392068884202D14FF4800083
:1013200023E0BD492068884201D1C0041DE0BB49CB
:101330002068884201D1042017E0B84914312068A0
:10134000884201D1402010E0B44928312068884209
:1013500001D1001509E0B1493C312068884202D131
:101360004FF4804001E04FF48020AC49091F086031
:1013700054E0A94978392068884201D104204AE024
:10138000A54964392068884202D1402043E04CE0FE
:10139000A14950392068884201D100153BE09E499F
:1013A0003C392068884202D14FF4804033E09A49AA
:1013B00028392068884202D14FF480202BE09649DA
:1013C00014392068884202D14FF4800023E092490A
:1013D0002068884201D1C0041DE0904920688842FD
:1013E00001D1042017E08D4914312068884201D1D1
:1013F000402010E0894928312068884201D1001539
:1014000009E086493C312068884202D14FF480408F
:1014100001E04FF48020804980394860E06A00286C
:1014200002D02046E16A8847F4E094F84010022098
:1014300088402840002871D006F002000028FAD029
:101440002068006800F0200040B92068006820F0A3
:101450000A0021680860012084F821006E49206894
:10146000884254D96C4978392068884201D10220D9
:1014700049E0694964392068884201D1202042E06E
:10148000654950392068884201D140153BE06249E6
:101490003C392068884202D14FF4005033E05E4965
:1014A00028392068884202D14FF400302BE05A4995
:1014B00014392068884202D14FF4001023E05649C5
:1014C0002068884201D180041DE054492068884288
:1014D00001D1022017E0514914312068884201D11E
:1014E000202010E04D4928312068884201D1401564
:1014F00009E04A493C312068884202D14FF400504B
:1015000001E04FF400304549091F086054E04249AA
:1015100078392068884202D102204AE057E03E49EB
:1015200064392068884201D1202042E03A4950398C
:101530002068884201D140153BE037493C3920689A
:10154000884202D14FF4005033E0334928392068F3
:10155000884202D14FF400302BE02F491439206823
:10156000884202D14FF4001023E02B4920688842C2
:1015700001D180041DE029492068884201D1022060
:1015800017E0264914312068884201D1202010E05C
:10159000224928312068884201D1401509E01F49BD
:1015A0003C312068884202D14FF4005001E04FF4F2
:1015B000003019498039486000BF002084F82000BD
:1015C00000BFA06A30B32046A16A884722E094F8A1
:1015D0004010082088402840E0B106F00800C8B15B
:1015E0002068006820F00E002168086094F8401020
:1015F00001208840E16B48600120A06384F821004D
:1016000000BF002084F8200000BF206B10B12046EE
:10161000216B884770BD0000800002400804024032
:101620000146002209B9012070471E4B0868984204
:101630000BD21D4B0868C01A1423B0FBF3F08000D6
:10164000086419480838C8630AE0164B0868C01ACD
:101650001423B0FBF3F08000086412480838C86314
:10166000022081F821000868026843F6F070824386
:10167000D1E901031843CB6818430B6918434B6940
:1016800018438B691843CB6918430243086802600A
:1016900000208863012081F82100002081F82000CB
:1016A00000BFC1E708040240080002402DE9F041F4
:1016B00004460D4616461F464FF0000800BF94F83A
:1016C0002000012802D10220BDE8F081012084F829
:1016D000200000BF94F8210001282CD1022084F8BA
:1016E00021000020A0632068006820F0010021682C
:1016F00008603B46324629462046FEF7EBFEE06A8C
:1017000030B12068006840F00E00216808600BE0EE
:101710002068006820F004002168086020680068E4
:1017200040F00A00216808602068006840F001006D
:101730002168086006E000BF002084F8200000BF98
:101740004FF002084046BFE72DE9F8470246002364
:101750009C467BE14FF0010808FA03F4D1F80080C1
:1017600008EA0400A0427DD1DFF8F4A2D1F8048099
:10177000A8EB0A09D0453AD014DCB8F1030F50D0D9
:1017800009DCB8F1000F31D0B8F1010F1CD0B8F16D
:10179000020F49D120E0B8F1110F18D0B8F1120FA3
:1017A00042D11EE0B9F5881F25D006DCB9F5803F8F
:1017B00020D0B9F5801F37D11AE0B9F5001F18D035
:1017C000B9F5041F30D117E0D1F80CC02DE0D1F8E5
:1017D0000C8008F1040C28E0D1F80C8008F1080C0A
:1017E00023E0D1F80C8008F10C0C1EE000BF00BF14
:1017F00000BF00BF00BF00BFD1F80880B8F1000FE4
:1018000002D14FF0040C0BE0D1F80880B8F1010FC1
:1018100003D14FF0080C146102E04FF0080C546142
:1018200003E04FF0000C00E000BF00BFFF2801D82C
:10183000904601E002F104084646FF2802D84FEA2C
:10184000830803E0A3F108084FEA88084746D6F862
:1018500000804FF00F0909FA07F928EA09080CFA85
:1018600007F900E07AE048EA0908C6F80080D1F8F4
:10187000048008F08058B8F1805F6FD100BFDFF8B6
:10188000E481D8F8188048F00108DFF8D891C9F849
:101890001880C846D8F8188008F00108CDF80080F4
:1018A00000BF00BF4FEAB9384FEA930958F82950F2
:1018B0004FEA83784FEA18794FF00F0808FA09F8D1
:1018C00025EA0805DFF8A081424502D14FF0000863
:1018D00024E0DFF89881424502D14FF001081DE075
:1018E000DFF88C81424502D14FF0020816E0DFF8A4
:1018F0008481424502D14FF003080FE0DFF8788180
:10190000424502D14FF0040808E0DFF870814245FB
:1019100002D14FF0050801E04FF006084FEA837945
:101920004FEA197908FA09F848EA0505DFF8508105
:101930004FEA930948F82950D1F8048008F4801838
:10194000B8F5801F0BD1DFF83C81D8F8008048EA59
:101950000008DFF83091C9F800800AE075E0DFF890
:101960002481D8F8008028EA0008DFF81891C9F827
:101970000080D1F8048008F40018B8F5001F0ED1DB
:10198000DFF8008108F10408D8F8008048EA000870
:10199000DFF8F09009F10409C9F800800DE0DFF8E4
:1019A000E48008F10408D8F8008028EA0008DFF88D
:1019B000D49009F10409C9F80080D1F8048008F432
:1019C0000038B8F5003F0ED1DFF8B880A8F1040860
:1019D000D8F8008048EA0008DFF8A890A9F10409C7
:1019E000C9F800800DE0DFF89C80A8F10408D8F861
:1019F000008028EA0008DFF88C90A9F10409C9F8F2
:101A00000080D1F8048008F48038B8F5803F0ED10A
:101A1000DFF87080A8F10808D8F8008048EA0008CC
:101A2000DFF86090A9F10809C9F800800DE0DFF83F
:101A30005480A8F10808D8F8008028EA0008DFF8E8
:101A40004490A9F10809C9F800805B1CD1F8008016
:101A500028FA03F8B8F1000F7FF47CAEBDE8F887F0
:101A6000000011100010024000080140000C01406D
:101A7000001001400014014000180140001C01400A
:101A80000800014008040140024693680B400BB176
:101A9000012000E00020704710B5C26821EA02036F
:101AA00002EA010443EA0443036110BD0AB1016183
:101AB00001E00B04036170470148006870470000B3
:101AC00004000020034800680349097808440149DC
:101AD00008607047040000200C00002010B5084882
:101AE000006840F0100006490860032000F0A8F8E4
:101AF0000F2000F007F800F02BF8002010BD0000C8
:101B00000020024070B504460E4800784FF47A7108
:101B1000B1FBF0F00C490968B1FBF0F5284600F084
:101B2000F9FB08B1012070BD102C07D2002221461C
:101B3000501E00F047F80548046001E00120F2E77C
:101B40000020F0E70C00002000000020080000202A
:101B500008B500BF1148806940F001000F49886155
:101B60000846806900F00100009000BF00BF00BF80
:101B70000846C06940F08050C8610846C06900F05E
:101B80008050009000BF00BF00BF0549486820F0AA
:101B9000E06040F00070486000BF08BD00100240E7
:101BA0000000014001460846002809DB00F01F0341
:101BB00001229A4043099B0003F1E023C3F800216E
:101BC00000BF70472DE9F05F80460D46164600279E
:101BD00001F092FD074639462A46334601F00700D8
:101BE000C0F1070ABAF1040F02D94FF0040A01E06C
:101BF000C0F1070AD14600F1040ABAF1070F02D278
:101C00004FF0000A01E0A0F1030AD4464FF0010AA8
:101C10000AFA09FAAAF1010A0AEA020A0AFA0CFA0D
:101C20004FF0010B0BFA0CFBABF1010B0BEA030BB2
:101C30004AEA0B042146404601F066FDBDE8F09FEC
:101C400000BF00F00702064B19684FF6FF0319406A
:101C5000044B0B4343EA0221014B196000BF70475C
:101C60000CED00E00000FA0570B504460D460CB915
:101C7000012070BD5A48006800F00700A8420ED24B
:101C80005748006820F00700284355490860084677
:101C9000006800F00700A84201D00120E9E72078A1
:101CA00000F0020002281DD1207800F00400042872
:101CB00005D14C48406840F4E0604A4948602078CB
:101CC00000F00800082805D14648406840F46050FC
:101CD000444948604348406820F0F000A168084348
:101CE00040494860207800F0010078B3606801281E
:101CF00006D13C48006800F4003090B90120B8E7F4
:101D00006068022806D13748006800F0007040B9CA
:101D10000120AEE73348006800F0020008B9012056
:101D2000A7E73048406820F00300616808432D4968
:101D30004860FFF7C1FE064609E0FFF7BDFE801BC5
:101D400041F28831884202D9032092E707E0254812
:101D5000406800F00C006168B0EB810FEDD12048C5
:101D6000006800F00700A8420ED91D48006820F066
:101D7000070028431A4908600846006800F0070079
:101D8000A84201D0012074E7207800F00400042864
:101D900007D11448406820F4E060E1680843114925
:101DA0004860207800F00800082808D10D484068F5
:101DB00020F46050216940EAC1000A49486000F0FF
:101DC0003FF808494968C1F30311074A515CC8400C
:101DD0000649086006480068FFF794FE002048E7BF
:101DE0000020024000100240243A000800000020B9
:101DF0000800002001480068704700000000002033
:101E000000B5FFF7F7FF04494968C1F30221034A0F
:101E1000515CC84000BD000000100240343A000888
:101E200000B5FFF7E7FF04494968C1F3C221034A3F
:101E3000515CC84000BD000000100240343A000868
:101E400070B500210022002400230020134D696892
:101E500001F00C05F5B1042D02D0082D19D101E0D7
:101E60000F4819E00F4DC1F38346AB5D01F4803597
:101E700055B10A4D6D68C5F340450B4E725D084D76
:101E80005D43B5FBF2F402E0084D03FB05F4204688
:101E900002E000BF024800BF00BF70BD001002405A
:101EA00000127A003C3A00084C3A000800093D0054
:101EB000F8B504460CB90120F8BD207800F0010007
:101EC000002878D0F848406800F00C0004280CD0B6
:101ED000F548406800F00C00082811D1F24840682D
:101EE00000F48030B0F5803F0AD1EF48006800F47C
:101EF000003000285FD0606800285CD10120DBE75B
:101F000000BF6068B0F5803F06D1E748006840F444
:101F10008030E549086028E0606858B9E248006808
:101F200020F48030E04908600846006820F48020F2
:101F300008601AE06068B0F5A02F0BD1DA4800689D
:101F400040F48020D84908600846006840F480309A
:101F500008600AE0D448006820F48030D249086064
:101F60000846006820F48020086000BF606888B1DF
:101F7000FFF7A2FD054606E0FFF79EFD401B642823
:101F800001D9032098E7C848006800F40030002811
:101F9000F2D010E0FFF790FD054606E0FFF78CFD5C
:101FA000401B642801D9032086E7BF48006800F47D
:101FB00000300028F2D1207800F00200022857D12A
:101FC000B948406800F00C0050B1B748406800F0D4
:101FD0000C00082818D1B448406800F4803098B943
:101FE000B148006800F0020020B12069012801D04A
:101FF000012061E7AC48006820F0F800616940EA20
:10200000C100A949086033E02069E8B10120A7496F
:102010000860FFF751FD054606E0FFF74DFD401B48
:10202000022801D9032047E79F48006800F002001A
:102030000028F2D09C48006820F0F800616940EA6E
:10204000C1009949086013E0002098490860FFF733
:1020500033FD054606E0FFF72FFD401B022801D99E
:10206000032029E79048006800F002000028F2D120
:10207000207800F0080008282DD1A069B8B101200F
:102080008B490860FFF718FD054606E0FFF714FDD1
:10209000401B022801D903200EE78348406A00F064
:1020A00002000028F2D0012000F05AFF13E00020C7
:1020B0007F490860FFF700FD054606E0FFF7FCFCDE
:1020C000401B022801D90320F6E67748406A00F059
:1020D00002000028F2D1207800F00400042873D117
:1020E00000277148C06900F0805070B900BF6E4889
:1020F000C06940F080506C49C8610846C06900F072
:102100008050009000BF00BF01276A48006800F4BB
:102110008070B0B96748006840F480706549086015
:10212000FFF7CAFC054606E0FFF7C6FC401B642823
:1021300001D90320C0E65F48006800F480700028E1
:10214000F2D000BFE068012806D15748006A40F08D
:1021500001005549086227E0E06858B95248006A12
:1021600020F00100504908620846006A20F004008F
:10217000086219E0E06805280BD14B48006A40F07E
:102180000400494908620846006A40F001000862FC
:102190000AE04548006A20F0010043490862084609
:1021A000006A20F00400086200BFE068A0B1FFF7F9
:1021B00083FC054609E0FFF77FFC401B41F28831B4
:1021C000884202D9032077E622E03748006A00F00F
:1021D00002000028EFD012E0FFF76EFC054608E091
:1021E000FFF76AFC401B41F28831884201D9032085
:1021F00062E62D48006A00F002000028F0D1012FAD
:1022000005D12948C06920F080502749C86100BF26
:10221000E069C8B32448406800F00C00082860D08A
:10222000E069022848D1002020490866FFF744FCF5
:10223000054606E0FFF740FC401B022801D90320B9
:102240003AE61948006800F000700028F2D1206AD0
:10225000B0F5803F07D11448406820F40030A168F1
:10226000084311494860D4E9080108430E49496808
:1022700021F4741108430C49486001200B49086699
:10228000FFF71AFC054607E03DE0FFF715FC401B91
:10229000022801D903200FE60348006800F000700F
:1022A0000028F2D02FE0000000100240000042425F
:1022B0008004424200700040002014490866FFF785
:1022C000FBFB054606E0FFF7F7FB401B022801D9A0
:1022D0000320F1E50E48006800F000700028F2D1FC
:1022E00011E0E069012800D1E6E50948466806F4F6
:1022F0008031206A814204D106F47011606A814203
:1023000001D00120D8E50020D6E5000000004242BF
:102310000010024070B504462546681EB0F1807F6B
:1023200001D301200FE0681E4FF0E02148610F212A
:102330004FF0FF3001F0E8F900204FF0E021886114
:1023400007200861002070BD30B502460B4600BF73
:1023500092F83C00012801D1022030BD012082F812
:102360003C0000BF022082F83D00106844681068FD
:10237000816824F070041868044310684460144DA8
:102380001068A84213D0134D1068A8420FD01068EF
:10239000B0F1804F0BD0104D1068A84207D00F4D00
:1023A0001068A84203D00E4D1068A84205D121F054
:1023B00080015868014310688160012082F83D0067
:1023C00000BF002082F83C0000BF00BFC5E700004E
:1023D000002C01400034014000040040000800408F
:1023E000000C004010B504460CB9012010BD94F853
:1023F0003D0028B9002084F83C00204600F026F873
:10240000022084F83D00211D206800F0FDFD012020
:1024100084F8460000BF84F83E0001213F200155AA
:10242000402001554120015500BF00BF012084F824
:10243000420043200155442001554520015500BF6D
:10244000012084F83D000020D0E7000008B5094ACB
:10245000016891420DD100BF0749C96941F01001DF
:10246000054AD1611146C96901F01001009100BF10
:1024700000BF08BD0010004000100240014691F866
:102480003D00012801D001207047022081F83D0065
:10249000164B0868984213D0154B086898420FD025
:1024A0000868B0F1804F0BD0124B0868984207D0F3
:1024B000114B0868984203D0104B086898420CD121
:1024C0000868806800F00702062A0CD008680068D7
:1024D00040F001000B68186005E00868006840F0F3
:1024E00001000B6818600020CEE70000002C0140BE
:1024F000003401400004004000080040000C00408F
:102500000146486B7047F8B504460D46164694F8E8
:10251000420020282DD105B10EB90120F8BD0120BF
:1025200020630020606332462946204601F046F8C9
:102530000746206B012819D100BF002000902068B9
:102540000068009020684068009000BF00BF00BF96
:1025500000BF21680C3151E8001F41F010002168D4
:102560000C3141E80002002AF3D100E0012738468F
:10257000D4E70220D2E700002DE9F04105460E46DF
:102580002846FFF7BDFF044600270C49286888420B
:1025900011D1022C01D1374606E014B94FF48077EF
:1025A00002E0012C00D1802739460548FEF7B3FB35
:1025B000002001F011F9BDE8F08100000038014071
:1025C000C806002010B5044600BF00BF21680C31CA
:1025D00051E8001F21F4907021680C3141E800029D
:1025E000002AF3D100BF00BF00BF2168143151E8B9
:1025F000001F21F001002168143141E80002002A87
:10260000F3D100BF206B01280ED100BF00BF2168AD
:102610000C3151E8001F21F0100021680C3141E815
:102620000002002AF3D100BF2068406900F040009A
:1026300000B300BF00BF2168143151E8001F21F032
:1026400040002168143141E80002002AF3D100BFA4
:10265000E06B78B10020E16B4863E06BFEF710FDA2
:1026600040B1E06BFEF70CFE202803D1102060641F
:10267000032010BD0020E085202084F842000020C7
:10268000206300BFF5E7000010B504460F4920683D
:1026900088421AD10E490868FFF794FF0C48FEF7EC
:1026A0000BFB0B49B1F80822086801F20711FFF78C
:1026B0002AFF07480068C06B0068006820F004002B
:1026C00003490968C96B0968086010BD00380140FA
:1026D000C80600202DE9F84F0446206805682068E8
:1026E000C668206847694FF00009CA4605F00F091F
:1026F000B9F1000F0AD105F0200038B106F0200032
:1027000020B1204600F05EFEBDE8F88FB9F1000F61
:102710007BD007F0010018B906F49070002874D03F
:1027200005F0010030B106F4807018B1606C40F023
:102730000100606405F0040030B107F0010018B139
:10274000606C40F00200606405F0020030B107F0F8
:10275000010018B1606C40F00400606405F00800EE
:1027600048B106F0200010B907F0010018B1606C04
:1027700040F008006064606C002845D005F020003F
:1027800028B106F0200010B1204600F01BFE2068A2
:102790004069C0F3801A606C00F0080010B9BAF10B
:1027A000000F2CD0204600F0B4FD2068406900F0F6
:1027B000400000B300BF00BF2168143151E8001F82
:1027C00021F040002168143141E80002002AF3D1D1
:1027D00000BFE06B50B17748E16B4863E06BFEF7F8
:1027E0007BFC88B1E06B416B88470DE02046FFF72A
:1027F0004BFF09E009E02046FFF746FF04E02046D2
:10280000FFF742FF002060647EE7206B012877D14C
:1028100005F01000002873D006F010000028FAD050
:1028200000BF002000902068006800902068406889
:10283000009000BF00BF2068406900F04000002801
:102840005FD0E06B006840681FFA80F8B8F1000FB5
:1028500055D0A08D404552DDA4F82E80E06B8069F4
:10286000202843D000BF00BF21680C3151E8001F71
:1028700021F4807021680C3141E80002002AF3D174
:1028800000BF00BF00BF2168143151E8001F21F0D4
:1028900001002168143141E80002002AF3D100BF91
:1028A00000BF00BF2168143151E8001F21F0400033
:1028B0002168143141E80002002AF3D100BF202032
:1028C00084F842000020206300BF00BF21680C3163
:1028D00051E8001F21F0100021680C3141E800028E
:1028E000002AF3D100BFE06BFEF7CAFB0220606351
:1028F000A08DE28D801A81B22046FFF73DFE03E7EE
:1029000042E0A08DE18D401A1FFA80F8E08DD0B32F
:10291000B8F1000F37D000BF00BF21680C3151E87B
:10292000001F21F4907021680C3141E80002002A58
:10293000F3D100BF00BF00BF2168143151E8001F70
:1029400021F001002168143141E80002002AF3D18E
:1029500000BF202084F842000020206300BF00BF99
:1029600021680C3151E8001F21F0100021680C3162
:1029700041E80002002AF3D100BF02206063414613
:102980002046FFF7F9FDBFE605F0800030B106F004
:10299000800018B1204600F075FEB5E605F0400055
:1029A00030B106F0400018B1204600F0E8FCABE67C
:1029B00000BFA9E67131000810B504460CB901202A
:1029C00010BDA06900B100E000BF94F8410028B933
:1029D000002084F84000204600F02AF8242084F8E3
:1029E00041002068C06820F400502168C86020467B
:1029F00000F066FD2068006920F4904021680861BD
:102A00002068406920F02A00216848612068C06879
:102A100040F400502168C86000206064202084F8E1
:102A2000410084F842000020606300BFC8E7000056
:102A300010B586B0044600200290039004900590E3
:102A40003949206888426DD100BF3848806940F418
:102A50008040364988610846806900F480400190D2
:102A600000BF00BF00BF0846806940F004008861D5
:102A70000846806900F00400019000BF00BF4815BF
:102A80000290022003900320059002A92848FEF737
:102A90005BFE4FF48060029000200390049002A936
:102AA0002348FEF751FE2348234908600020486070
:102AB0000021214881608021C160002101614161C4
:102AC000202181610902C161FEF7AAFD08B1FEF76C
:102AD000F7F900BF1848E063446200BF1548143896
:102AE0001649086010204860002114488160802148
:102AF000C16000210161416181614FF48051C16178
:102B0000FEF78EFD08B1FEF7DBF900BF0B48A063AE
:102B1000446200BF002211462520FFF753F825200C
:102B2000FFF740F806B010BD003801400010024029
:102B3000000801405800024044050020880500209C
:102B400070477047F7B50446154694F841002028B1
:102B500036D1019800B10DB90120FEBD0198206267
:102B6000A584E58400206064212084F84100154894
:102B7000A16B88621448A16BC8621448A16B0863FA
:102B80000020A16B486301AE23681A1D31682B46F3
:102B9000A06BFEF78BFD6FF040002168086000BF5E
:102BA00000BF2168143151E8001F41F08000216806
:102BB000143141E80002002AF3D100BF0020CCE725
:102BC0000220CAE7AD32000805330008853100084D
:102BD00070B5044600250E492068884216D10D487C
:102BE000FEF7C8F805468DB10A492A460868091D4E
:102BF000FFF7A8FF07480068806B0068006820F0B6
:102C0000040004490968896B0968086070BD000008
:102C100000380140C8060020704700BFFEE70000F2
:102C200002480078401C01490870704741000020AC
:102C300002480078401C014908707047400000209D
:102C400002480078401E014908707047410000208A
:102C500002480078401E014908707047400000207B
:102C600000200249087002490870704740000020A7
:102C70004100002010B501210148FEF70DFF10BDF5
:102C8000000C014008B500BF0E48406940F001004B
:102C90000C4948610846406900F00100009000BFFF
:102CA00000BF002211460E20FEF78CFF0E20FEF71B
:102CB00079FF002211460F20FEF784FF0F20FEF758
:102CC00071FF08BD0010024000B585B000200190E2
:102CD00002900390049000BF5248806940F01000B9
:102CE000504988610846806900F01000009000BFDC
:102CF00000BF00BF0846806940F020008861084698
:102D0000806900F02000009000BF00BF00BF0846AF
:102D1000806940F0040088610846806900F0040082
:102D2000009000BF00BF00BF0846806940F0080067
:102D300088610846806900F00800009000BF00BF6D
:102D4000002201213848FEF7B1FE00224FF4004175
:102D50003648FEF7ABFE00224FF4E0513448FEF750
:102D6000A5FE4EF2F33001900320029001A93048F5
:102D7000FEF7EAFC0C200190002002900120039055
:102D800001A92B48FEF7E0FC41F6FF10019003205B
:102D9000029001A92548FEF7D7FC0120019002907E
:102DA000002003900120049001A91F48FEF7CCFCED
:102DB0004FF6FE7001900320029001A91A48FEF719
:102DC000C3FC4FF4004001900120029000200390CA
:102DD0000120049001A91548FEF7B6FC4FF480606D
:102DE000019001200290002003900120049001A98D
:102DF0000F48FEF7A9FC4FF4C0500190112002903B
:102E0000002003900320049001A90948FEF79CFCD0
:102E1000042001900320029001A90648FEF794FCCB
:102E200005B000BD00100240000C01400008014048
:102E300000100140001401401CB5002000900190DA
:102E40000E480F4908604720486000210C48816007
:102E50004FF6FF71C16080218161FFF7C3FA08B1AD
:102E6000FEF72EF800200090019069460448FFF715
:102E70006BFA08B1FEF724F81CBD000000100040FA
:102E8000B404002010B50B480B4908604FF46120D2
:102E90004860002108488160C16001610C214161E6
:102EA00000218161C161FFF787FD08B1FEF708F8D5
:102EB00010BD000000380140FC04002000BFFEE708
:102EC000704700BFFEE7000010B504460CB10120BA
:102ED00000E0002002464FF400410248FEF7E6FD04
:102EE00010BD00000008014010B504460CB10120DF
:102EF00000E0002002464FF480610248FEF7D6FD54
:102F000010BD00000010014010B504460CB10120B6
:102F100000E0002002464FF480510248FEF7C6FD53
:102F200010BD00000010014010B504460CB1012096
:102F300000E0002002464FF400610248FEF7B6FDB3
:102F400010BD00000010014010B54FF400610248B0
:102F5000FEF79AFD10BD0000001001407047000010
:102F600008B508490968C9084FF47A72B1FBF2F153
:102F70004143009100BF00BF00994A1E0092002902
:102F8000F9D108BD00000020704710B5FEF79AFD8A
:102F9000FDF780FE10BD00B58FB0282105A8FDF714
:102FA000BCF914216846FDF7B8F90120059000042A
:102FB0000690002007900120099002200C90C10388
:102FC0000D914FF4E0110E9105A8FEF771FF08B1C5
:102FD000FDF776FF0F200090022001900020029064
:102FE0004FF4806003900020049002216846FEF7B1
:102FF0003BFE08B1FDF764FF0FB000BD704710B590
:1030000000F0F8FC10BD000010B50268244B984297
:103010000ED0244B98420BD0B0F1804F08D0224BF9
:10302000984205D0214B984202D0214B984203D1BF
:1030300022F070024B681A43194B98420ED0194B7C
:1030400098420BD0B0F1804F08D0174B984205D072
:10305000164B984202D0164B984203D122F440728C
:10306000CB681A4322F080034C6943EA04020260F1
:103070008B68C3620B688362094B984202D0094B8C
:10308000984201D10B69036301234361036903F093
:1030900001031BB1036923F00103036110BD0000AC
:1030A000002C0140003401400004004000080040B2
:1030B000000C004010B5ADF5007D4FF4007168467E
:1030C000FDF72BF90848FDF7C3FF84B22246694695
:1030D0000648FDF73EFE224669460448FDF779FEA4
:1030E0000DF5007D10BD0000F40A0020C806002088
:1030F00010B50248FDF736FD10BD00007C00002031
:1031000008B510480078401C0E4908700520009052
:10311000084603780A2203210B48FDF7FEFA052032
:103120000A4B1422032100900748FDF7F6FA08A382
:1031300000220F210448FDF72CFB0348FDF74DFB4F
:1031400008BD0000B0040020A0000020C7CFFFFF92
:1031500048656C6C6F205374616269476F21000091
:1031600002480068406A80B270470000B404002042
:1031700070B505466C6A0020E085E0842046FFF7C4
:1031800083FA70BD70B506460025746A20684069F0
:10319000C0F3C01594F84100212805D125B10020C5
:1031A000E084204600F0FBF820684069C0F38015F9
:1031B00094F84200222805D125B10020E085204660
:1031C00000F0A7F8606C40F0100060642046FFF744
:1031D0005BFA70BD70B505466C6A2868006800F03F
:1031E0002000002842D1E08500BF00BF21680C31DB
:1031F00051E8001F21F4807021680C3141E8000281
:10320000002AF3D100BF00BF00BF2168143151E88C
:10321000001F21F001002168143141E80002002A5A
:10322000F3D100BF00BF00BF2168143151E8001F77
:1032300021F040002168143141E80002002AF3D156
:1032400000BF202084F84200206B01280ED100BF6F
:1032500000BF21680C3151E8001F21F010002168E7
:103260000C3141E80002002AF3D100BF0020606366
:10327000206B012804D1A18D2046FFF77DF902E0E3
:103280002046FFF75DFC70BD70B505466C6A0120F5
:103290006063206B012805D1A08D41082046FFF70F
:1032A0006BF902E02046FFF74CFC70BD70B5054697
:1032B0006C6A2868006800F02000F8B90020E084FB
:1032C00000BF00BF2168143151E8001F21F08000C9
:1032D0002168143141E80002002AF3D100BF00BF89
:1032E00000BF21680C3151E8001F41F04000216807
:1032F0000C3141E80002002AF3D102E02046FFF73A
:1033000067FC70BD70B50446656A2846FFF784FC0B
:1033100070BD00BF00BF02680C3252E8002F22F4DB
:10332000907102680C3242E80013002BF3D100BF09
:1033300000BF00BF0268143252E8002F22F00101E2
:103340000268143242E80013002BF3D100BF016B76
:1033500001290ED100BF00BF02680C3252E8002FD5
:1033600022F0100102680C3242E80013002BF3D166
:1033700000BF202180F8421000210163704710B582
:1033800004462068C06820F040002168C860202002
:1033900084F841002046FFF71BFC002010BD00BF51
:1033A00000BF02680C3252E8002F22F0C001026810
:1033B0000C3242E80013002BF3D100BF202180F82B
:1033C00041107047F8B5044694F84200222875D1A0
:1033D000A068B0F5805F0CD1206950B90025A66ABD
:1033E00020684068C0F308003080A06A801CA0629A
:1033F00015E0A56A0026A068B0F5805F03D0A0683C
:1034000028B9206918B920684068287004E020684D
:10341000406800F07F002870A06A401CA062E08D28
:10342000401E80B2E085002846D12068C06820F0A8
:1034300020002168C8602068C06820F4807021687E
:10344000C8602068406920F00100216848612020A0
:1034500084F8420000206063206B012826D1002000
:10346000206300BF00BF21680C3151E8001F21F02C
:10347000100021680C3141E80002002AF3D100BF9E
:103480002068006800F0100010280AD100BF00205A
:10349000009020680068009020684068009000BF9D
:1034A00000BFA18D2046FFF767F802E02046FFF736
:1034B00047FB0020F8BD01E00020FBE70220F9E710
:1034C00070B504462168096921F44051E26811434E
:1034D000226811612269A1681143626941EA02050B
:1034E0002168C96841F20C62914329432268D16086
:1034F0002168496921F44071A26911432268516130
:103500002D4A2168914202D1FEF78AFC01E0FEF7C4
:1035100077FC00EBC00101EB001162689200B1FB87
:10352000F2F100EBC00202EB001263689B00B2FBF9
:10353000F3F26423B2FBF3F202EBC20303EB0212D9
:10354000A1EB8201322202EB01116422B1FBF2F104
:1035500001F0F00100EBC00202EB001263689B0077
:10356000B2FBF3F26423B2FBF3F201EB021200EBC5
:10357000C00101EB001163689B00B1FBF3F100EBAC
:10358000C00303EB00136668B600B3FBF6F36426D2
:10359000B3FBF6F303EBC30606EB0313A1EB8301C6
:1035A000322303EB01116423B1FBF3F101F00F01AE
:1035B00011442268916070BD0038014077B581B038
:1035C000044615460298A062A5850020606422206A
:1035D00084F842002848E16B88622848E16BC862A1
:1035E0002748E16B08630020E16B486302AE326854
:1035F0002368191D2B46E06BFEF758F800BF00202A
:10360000009020680068009020684068009000BF2B
:1036100000BF206970B100BF00BF21680C3151E8C4
:10362000001F41F4807021680C3141E80002002A3B
:10363000F3D100BF00BF00BF2168143151E8001F63
:1036400041F001002168143141E80002002AF3D161
:1036500000BF00BF00BF2168143151E8001F41F0D6
:1036600040002168143141E80002002AF3D100BF74
:10367000002004B070BD0000D53100088932000878
:1036800085310008014691F84100212828D1886839
:10369000B0F5805F0BD1086948B90A6A1088C0F399
:1036A00008000B685860086A801C086205E00B6A15
:1036B000581C086218780B685860C88C401E80B28D
:1036C000C88458B90868C06820F080000B68D860CA
:1036D0000868C06840F040000B68D8600020704760
:1036E0000220FCE710B50248FEF7F4FF10BD000011
:1036F000FC04002000BFFEE702480068C0F302207F
:10370000704700000CED00E010B5002804DB0A074C
:10371000130E054A135406E00A07140E034A00F07C
:103720000F031B1FD45410BD00E400E018ED00E0AF
:103730002DE9F0411449D1F8F000804704460D46C8
:1037400000211DE0104A083202EB4110426902B923
:1037500014E0427C8AB9027C7AB9D0E90232E71AD5
:1037600065EB02030288BA1A73F1000305D3012244
:103770000274C0E902450022427600BF481CC1B273
:103780000729DFDBBDE8F081D005002002460021DB
:1037900009E0074800EB41100088904201D148B28F
:1037A0007047481CC1B20729F3DB4FF0FF30F7E741
:1037B000D8050020FEF792F9FFF7EDFBFFF784FA3A
:1037C000FFF760FAFFF75EFBFFF736FBFCF760FEE2
:1037D00001E0FFF714FCFCE7074991F8EC10814287
:1037E00008DD0549B1F8EE10012282401143024A7A
:1037F000A2F8EE1070470000D005002070B50F4809
:10380000B0F8EE4000200D49A1F8EE0012E094FA65
:10381000A4F0B0FA80F60120B04084430748D0F805
:10382000E80000EBC605287918B1286808B12868B7
:10383000804700BF002CEAD170BD0000D0050020F9
:1038400070B5002544E0244800782844072190FB07
:10385000F1F201FB1200C6B21F48083000EB46141B
:10386000606900B932E0207C30B1607C20B9012071
:103870006074002020746076607C30B3607E217EAE
:10388000884222DA617E606900EBC100007948B1AC
:10389000617E606950F8310020B1627E616951F843
:1038A00032008047607E401C6076607E217E8842C8
:1038B00001DB00206074701C072190FBF1F201FB1A
:1038C000120005490870012070BD00BF681CC5B218
:1038D000072DB8DB0020F7E7D0050020024612B123
:1038E00009B1102902DD4FF0FF307047002307E0D7
:1038F00052F8330010B94FF0FF30F6E7581CC3B24E
:103900008B42F5DB0648D0F8E80010B14FF0FF30ED
:10391000EBE70348C0F8E82080F8EC100020E4E76B
:10392000D00500202DE9F04180460D46144615B122
:103930000CB1082C03DD4FF0FF30BDE8F081002111
:1039400007E055F8310010B94FF0FF30F5E7481C9B
:10395000C1B2A142F5DB4046FFF718FF0646002E34
:1039600002DA4FF0FF30E8E7054800EB46177869C8
:1039700010B14FF0FF30E0E77D613C760020DCE7DE
:10398000D805002070B5044604B970BDF821184868
:10399000FCF7C3FC0A20164908811421144801854C
:1039A0003221A0F848106421A0F86810C821A0F8BE
:1039B00088104FF4FA71A0F8A8104900A0F8C810B8
:1039C000C0F8F040A04705460E46002007E0084931
:1039D000083101EB4011C1E90256411CC8B2072869
:1039E000F5DB0020024981F8F40000BFCDE70000BC
:1039F000D005002010B50120094981F8F40008E045
:103A0000FFF7FCFEFFF794FEFFF71AFF00B100E09E
:103A100000BF034890F8F4000028F1D110BD000069
:103A2000D005002000000000000000000102030497
:103A30000607080900000000010203040203040550
:103A4000060708090A0B0C0D0E0F101001020000EA
:103A5000000000000000002F000000000700070029
:103A600000147F147F1400242A7F2A1200231308D5
:103A70006462003649552250000000070000000033
:103A80001C224100000041221C000014083E0814C2
:103A90000008083E0808000000A0600000080808B0
:103AA0000808000060600000002010080402003ECA
:103AB0005149453E0000427F400000426151494665
:103AC000002141454B31001814127F100027454555
:103AD0004539003C4A494930000171090503003667
:103AE0004949493600064949291E0000363600007A
:103AF000000056360000000814224100001414147F
:103B00001414000041221408000201510906003E6D
:103B10004955592E007C1211127C007F49494936C3
:103B2000003E41414122007F4141221C007F494922
:103B30004941007F09090901003E4149497A007F56
:103B40000808087F0000417F4100002040413F01FC
:103B5000007F08142241007F40404040007F020C5B
:103B6000027F007F0408107F003E4141413E007FFC
:103B700009090906003E4151215E007F09192946C5
:103B80000046494949310001017F0101003F4040A1
:103B9000403F001F2040201F003F4038403F00634F
:103BA0001408146300070870080700615149454371
:103BB00000007F4141000002040810200000414144
:103BC0007F00000402010204004040404040000029
:103BD00001020400002054545478007F48444438C3
:103BE00000384444442000384444487F003854544A
:103BF000541800087E0901020018A4A4A47C007FC8
:103C0000080404780000447D4000004080847D006A
:103C1000007F102844000000417F4000007C041811
:103C20000478007C0804047800384444443800FCDC
:103C3000242424180018242418FC007C08040408F8
:103C400000485454542000043F444020003C40406D
:103C5000207C001C2040201C003C4030403C0044A4
:103C600028102844001CA0A0A07C004464544C44AC
:103C70000000087F41000000007F00000000417F3D
:103C80000800000804081008A83C000800000020F4
:103C9000B40400006C010008103D0008B4040020CA
:103CA000BC0E0000C80100081153127A3210320114
:103CB00013F1302A08084B0131084B752C085AB50E
:103CC000180114136110820813E8032A01281A311D
:103CD000381A21040A11711C1A51181A410422447D
:103CE00033200213B91A5B08616813310A140809FA
:103CF0002F1B0829041A490402FF7801FF01FF0164
:103D0000FF71228C1420E92E1B08C9044100000019
:0400000508000131BD
:00000001FF
