:020000040800F2
:10000000580C0020CD0100086B1B00085B1900088C
:10001000651B000873030008C51F000800000000EE
:10002000000000000000000000000000811C00082B
:100030007703000800000000551C0008831C00081E
:10004000E7010008E7010008E7010008E7010008F0
:10005000E7010008E7010008E7010008E7010008E0
:10006000E7010008E7010008E7010008E7010008D0
:10007000E7010008E7010008E7010008E7010008C0
:10008000E7010008E7010008E7010008E7010008B0
:10009000E7010008E7010008E7010008E7010008A0
:1000A000E7010008E7010008E7010008E701000890
:1000B000E7010008E7010008E7010008E701000880
:1000C000E7010008E7010008E7010008E701000870
:1000D000E7010008E7010008E7010008E701000860
:1000E000E7010008E7010008E7010008E701000850
:1000F000E7010008E7010008E7010008E701000840
:10010000E7010008E7010008E7010008E70100082F
:10011000E7010008E7010008E7010008E70100081F
:10012000E7010008E7010008E7010008E70100080F
:1001300000F002F800F03AF80AA090E8000C8244BF
:100140008344AAF10107DA4501D100F02FF8AFF29C
:10015000090EBAE80F0013F0010F18BFFB1A43F0A5
:10016000010318478C230000AC230000103A24BF81
:1001700078C878C1FAD8520724BF30C830C144BF0C
:1001800004680C607047000000230024002500264E
:10019000103A28BF78C1FBD8520728BF30C148BFEA
:1001A0000B6070471FB51FBD10B510BD00F07AF889
:1001B0001146FFF7F7FF01F069FF00F098F803B46C
:1001C000FFF7F2FF03BC00F09FF8000009488047EA
:1001D00009480047FEE7FEE7FEE7FEE7FEE7FEE729
:1001E000FEE7FEE7FEE7FEE704480549054A064B41
:1001F00070470000F51C0008310100085806002077
:10020000580C002058080020580800204FF0000229
:100210000429C0F0128010F0030C00F01B80CCF118
:10022000040CBCF1020F18BF00F8012BA8BF20F886
:10023000022BA1EB0C0100F00DB85FEAC17C24BFDA
:1002400000F8012B00F8012B48BF00F8012B704784
:100250004FF0000200B5134694469646203922BF5F
:10026000A0E80C50A0E80C50B1F12001BFF4F7AFAA
:10027000090728BFA0E80C5048BF0CC05DF804EB8C
:10028000890028BF40F8042B08BF704748BF20F8FA
:10029000022B11F0804F18BF00F8012B70477047F8
:1002A00070477047754600F02BF8AE46050069466A
:1002B000534620F00700854618B020B5FFF794FF9D
:1002C000BDE820404FF000064FF000074FF0000857
:1002D0004FF0000B21F00701AC46ACE8C009ACE8D8
:1002E000C009ACE8C009ACE8C0098D46704710B53C
:1002F0000446AFF300802046BDE81040FFF75FBF23
:1003000000487047F805002001491820ABBEFEE701
:10031000260002007047000010B50A4801F066FF91
:10032000012209490A2001F031FF01220749142066
:1003300001F02CFF022206494FF47A7001F026FFEB
:1003400010BD0000E5090008140000201C0000207A
:100350002400002010B572B600F00AF800F086FA0A
:1003600000F06AFA01F000FCFFF7D6FF62B610BD9C
:10037000704700BFFEE7704770B50546002400BF18
:1003800007E0691C01EBC4108021FFF73FFF601CF0
:10039000C4B2082CF5DB70BD2DE9F04F06460C46C3
:1003A00015461F46DDF824C0E019802801DAE0195F
:1003B00000E0802000F0FF0805EB0C00402802DA86
:1003C00005EB0C0000E0402000F0FF0923462FE081
:1003D000284629E04FEAE07A00EB5A7A4FEAEA0B26
:1003E00006F1010A0AEBCB1A1AF803A002464FEAFB
:1003F000E07B00EB5B7B4FEAEB0BA0EBCB0E4FF00F
:10040000010B0BFA0EFB2AEA0B0A01464FEAE07BCE
:1004100000EB5B7B4FEAEB0B06F1010E0EEBCB1B07
:100420000BF803A0411CC8B24845D3DB581CC3B22B
:100430004345CDDBBDE8F08FFCB505460E461746BB
:100440001C46A4F1200000EB4000064901EB4000EF
:10045000082106233A46CDE900103146284600F02F
:1004600003F8FCBDB62200082DE9F84F06460D46FC
:1004700014461F46DDE90A897F2D01D93F2C06D895
:10048000E8197F2805D904EB08003F2801D9BDE809
:10049000F88F3B46224629463046CDF80080FFF7CC
:1004A0007BFF002067E0002161E022464FEAE47C08
:1004B00004EB5C7C00EBEC0A06F1010C0CEBCA1CB3
:1004C00005EB010A1CF80AC023464FEAE47A04EB64
:1004D0005A7A4FEAEA0AA4EBCA0A07FB001B19F88A
:1004E0000BB00BFA0AFB4CEA0B0C4FEAE47A04EB74
:1004F0005A7A00EBEA0B06F1010A0AEBCB1A05EB7C
:10050000010B0AF80BC04FEAE47C04EB5C7C00EBC7
:10051000EC0C0CF1010C06F1010A0AEBCC1C05EB0A
:10052000010A1CF80AC04FEAE47A04EB5A7A4FEA4F
:10053000EA0AA4EBCA0ACAF1080A07FB001B19F869
:100540000BB04BFA0AFB4CEA0B0C4FEAE47A04EBD3
:100550005A7A00EBEA0A0AF1010A06F1010B0BEBE9
:10056000CA1A05EB010B0AF80BC04A1CD1B2B942FA
:100570009BDB411CC8B2A8F10101CA1701EB527202
:10058000012303EBE20282428DDC00BF7FE72DE90D
:10059000F04780460C4691461D46089F002D09DA1B
:1005A0002D234A4621464046FFF746FFA01DC4B210
:1005B0006D4207E02B234A4621464046FFF73CFFA9
:1005C000A01DC4B200261AE0B81B401EC1B20A200A
:1005D00000F032F8B5FBF0F00A21B0FBF1F201FBBC
:1005E000120000F1300A06EB460004EB4000C1B2F5
:1005F00053464A464046FFF71FFF701CC6B2BE4234
:10060000E2DBBDE8F0872DE9F04107460E46904653
:100610001D4600240BE02B5D04EB440006EB40007C
:10062000C1B242463846FFF707FF601CC4B2285DDE
:100630000028F0D1BDE8F08110B50246012000E0AD
:1006400050430B1EA1F10104E1B2F9D110BD70B508
:100650000546002400BF16E004F1B000C1B22846F0
:1006600000F014F80021284600F010F81021284668
:1006700000F00CF8681C00EBC4118022284600F042
:100680002CF8601CC4B2082CE6DB70BD70B50446C3
:100690000D46D4F8040400F04BF92178D4F8040492
:1006A00000F022F9D4F8040400F072F90021D4F823
:1006B000040400F019F9D4F8040400F069F929469B
:1006C000D4F8040400F010F9D4F8040400F060F940
:1006D000D4F8040400F044F970BD2DE9F04104465B
:1006E0000E461746D4F8040400F022F92178D4F815
:1006F000040400F0F9F8D4F8040400F049F94021AA
:10070000D4F8040400F0F0F8D4F8040400F040F940
:1007100000250AE0715DD4F8040400F0E5F8D4F88F
:10072000040400F035F9681CC5B2BD42F2DBD4F810
:10073000040400F015F9BDE8F08110B5044600206E
:10074000D4F80C1488470020D4F808148847D4F84B
:100750000404416844F6206088470120D4F8081456
:100760008847AE212046FFF791FFD5212046FFF7AD
:100770008DFF80212046FFF789FFA8212046FFF743
:1007800085FF3F212046FFF781FFD3212046FFF759
:100790007DFF00212046FFF779FF40212046FFF72B
:1007A00075FFA1212046FFF771FFDA212046FFF7F0
:1007B0006DFF12212046FFF769FF81212046FFF7D8
:1007C00065FFEF212046FFF761FFD9212046FFF7A3
:1007D0005DFFF1212046FFF759FFDB212046FFF79F
:1007E00055FF30212046FFF751FF20212046FFF71B
:1007F0004DFF02212046FFF749FFC8212046FFF7A1
:1008000045FFA4212046FFF741FFA6212046FFF720
:100810003DFF8D212046FFF739FF14212046FFF7C9
:1008200035FFAF212046FFF731FF2046FFF7A4FD3B
:100830002046FFF70CFF10BD10B57820074908705F
:100840000748C1F804040748C1F808040648C1F87D
:100850000C040846FFF771FF10BD0000EC000020FB
:10086000D8000020911B0008711B000810B5084833
:1008700000F052FF074800F0BBF8074807494860FE
:10088000074888600748C8600748086110BD000035
:1008900048000020A51D0008AD080008D800002071
:1008A000B11B0008D11B0008F11B00082DE9F04125
:1008B00006460C48006880470446002500270DE0E6
:1008C0000848006880470546A54202DB281B87B21E
:1008D00004E04FF6FF70001B284487B2B742EFDBFD
:1008E000BDE8F0813C0000202DE9F04104460D46B2
:1008F0008027002600BF17E005EA0702D011E16853
:1009000088476806050E2078616888470120A1683D
:1009100088472078616888470020A1688847207848
:1009200061688847701CC6B2082EE5D3BDE8F08127
:1009300010B504460120E16888470120A168884776
:100940002078616888470020E168884720786168DE
:1009500088470020A168884720786168884710BDD3
:1009600010B504460020E16888470020A168884748
:100970002078616888470120A168884720786168ED
:1009800088470120E168884720786168884710BD62
:1009900070B5044600250120E16888472078616829
:1009A00088470120A16888472078616888472069C6
:1009B000804708B1012500E000250020A168884794
:1009C000207861688847284670BD00000448D0E957
:1009D00000305A1C40F100000149C1E90020704775
:1009E00040000020014903C970470000400000207A
:1009F00008B10149086070473C00002072B600BF92
:100A0000FEE700002DE9F847024600239C467BE103
:100A10004FF0010808FA03F4D1F8008008EA040056
:100A2000A0427DD1DFF8F4A2D1F80480A8EB0A0936
:100A3000D0453AD014DCB8F1030F50D009DCB8F13E
:100A4000000F31D0B8F1010F1CD0B8F1020F49D11D
:100A500020E0B8F1110F18D0B8F1120F42D11EE00A
:100A6000B9F5881F25D006DCB9F5803F20D0B9F54F
:100A7000801F37D11AE0B9F5001F18D0B9F5041F4F
:100A800030D117E0D1F80CC02DE0D1F80C8008F17E
:100A9000040C28E0D1F80C8008F1080C23E0D1F810
:100AA0000C8008F10C0C1EE000BF00BF00BF00BFAF
:100AB00000BF00BFD1F80880B8F1000F02D14FF09D
:100AC000040C0BE0D1F80880B8F1010F03D14FF00E
:100AD000080C146102E04FF0080C546103E04FF081
:100AE000000C00E000BF00BFFF2801D8904601E0E5
:100AF00002F104084646FF2802D84FEA830803E0C3
:100B0000A3F108084FEA88084746D6F800804FF05E
:100B10000F0909FA07F928EA09080CFA07F900E0B1
:100B20007AE048EA0908C6F80080D1F8048008F0A5
:100B30008058B8F1805F6FD100BFDFF8E481D8F84A
:100B4000188048F00108DFF8D891C9F81880C84625
:100B5000D8F8188008F00108CDF8008000BF00BF69
:100B60004FEAB9384FEA930958F829504FEA837889
:100B70004FEA18794FF00F0808FA09F825EA080536
:100B8000DFF8A081424502D14FF0000824E0DFF8F1
:100B90009881424502D14FF001081DE0DFF88C81B9
:100BA000424502D14FF0020816E0DFF88481424549
:100BB00002D14FF003080FE0DFF87881424502D1FF
:100BC0004FF0040808E0DFF87081424502D14FF091
:100BD000050801E04FF006084FEA83794FEA1979DA
:100BE00008FA09F848EA0505DFF850814FEA930949
:100BF00048F82950D1F8048008F48018B8F5801F0F
:100C00000BD1DFF83C81D8F8008048EA0008DFF813
:100C10003091C9F800800AE075E0DFF82481D8F847
:100C2000008028EA0008DFF81891C9F80080D1F8A0
:100C3000048008F40018B8F5001F0ED1DFF8008119
:100C400008F10408D8F8008048EA0008DFF8F090BE
:100C500009F10409C9F800800DE0DFF8E48008F12B
:100C60000408D8F8008028EA0008DFF8D49009F1D9
:100C70000409C9F80080D1F8048008F40038B8F5F8
:100C8000003F0ED1DFF8B880A8F10408D8F8008042
:100C900048EA0008DFF8A890A9F10409C9F8008023
:100CA0000DE0DFF89C80A8F10408D8F8008028EA5D
:100CB0000008DFF88C90A9F10409C9F80080D1F888
:100CC000048008F48038B8F5803F0ED1DFF87080DA
:100CD000A8F10808D8F8008048EA0008DFF860901A
:100CE000A9F10809C9F800800DE0DFF85480A8F1E7
:100CF0000808D8F8008028EA0008DFF84490A9F135
:100D00000809C9F800805B1CD1F8008028FA03F8B4
:100D1000B8F1000F7FF47CAEBDE8F8870000111039
:100D20000010024000080140000C0140001001408A
:100D30000014014000180140001C0140080001405F
:100D400008040140024693680B400BB1012000E00B
:100D50000020704710B5C26821EA020302EA0104CC
:100D600043EA0443036110BD0AB1016101E00B04D1
:100D700003617047014800687047000004000020CC
:100D8000034800680349097808440149086070472E
:100D9000040000200C00002010B50848006840F056
:100DA000100006490860032000F098F80F2000F0BA
:100DB00007F800F02BF8002010BD000000200240D2
:100DC00070B504460E4800784FF47A71B1FBF0F02C
:100DD0000C490968B1FBF0F5284600F0E9FB08B1C1
:100DE000012070BD102C07D200222146501E00F0B9
:100DF00037F80548046001E00120F2E70020F0E741
:100E00000C000020000000200800002008B500BFF2
:100E10001148806940F001000F49886108468069E7
:100E200000F00100009000BF00BF00BF0846C0698D
:100E300040F08050C8610846C06900F080500090C2
:100E400000BF00BF00BF0549486820F0E06040F0E7
:100E50000070486000BF08BD001002400000014063
:100E60002DE9F05F80460D461646002701F0ACF8EC
:100E7000074639462A46334601F00700C0F1070A03
:100E8000BAF1040F02D94FF0040A01E0C0F1070AD9
:100E9000D14600F1040ABAF1070F02D24FF0000A5E
:100EA00001E0A0F1030AD4464FF0010A0AFA09FA58
:100EB000AAF1010A0AEA020A0AFA0CFA4FF0010B37
:100EC0000BFA0CFBABF1010B0BEA030B4AEA0B0428
:100ED0002146404601F080F8BDE8F09F00BF00F0D9
:100EE0000702064B19684FF6FF031940044B0B43EA
:100EF00043EA0221014B196000BF70470CED00E08E
:100F00000000FA0570B504460D460CB9012070BD0D
:100F10005A48006800F00700A8420ED257480068FF
:100F200020F007002843554908600846006800F093
:100F30000700A84201D00120E9E7207800F0020074
:100F400002281DD1207800F00400042805D14C4867
:100F5000406840F4E0604A494860207800F00800AA
:100F6000082805D14648406840F46050444948602C
:100F70004348406820F0F000A168084340494860B9
:100F8000207800F0010078B36068012806D13C4861
:100F9000006800F4003090B90120B8E760680228CA
:100FA00006D13748006800F0007040B90120AEE774
:100FB0003348006800F0020008B90120A7E7304874
:100FC000406820F00300616808432D494860FFF73E
:100FD000D1FE064609E0FFF7CDFE801B41F28831C5
:100FE000884202D9032092E707E02548406800F0D4
:100FF0000C006168B0EB810FEDD12048006800F073
:101000000700A8420ED91D48006820F007002843B9
:101010001A4908600846006800F00700A84201D09D
:10102000012074E7207800F00400042807D1144858
:10103000406820F4E060E168084311494860207886
:1010400000F00800082808D10D48406820F46050DE
:10105000216940EAC1000A49486000F03FF80849A8
:101060004968C1F30311074A515CC840064908604A
:1010700006480068FFF7A4FE002048E70020024071
:10108000001002408C220008000000200800002010
:1010900001480068704700000000002000B5FFF71D
:1010A000F7FF04494968C1F30221034A515CC84073
:1010B00000BD0000001002409C22000800B5FFF7B0
:1010C000E7FF04494968C1F3C221034A515CC840A3
:1010D00000BD0000001002409C22000870B50021F5
:1010E0000022002400230020134D696801F00C0544
:1010F000F5B1042D02D0082D19D101E00F4819E0F7
:101100000F4DC1F38346AB5D01F4803555B10A4DF7
:101110006D68C5F340450B4E725D084D5D43B5FBF0
:10112000F2F402E0084D03FB05F4204602E000BFA4
:10113000024800BF00BF70BD0010024000127A00DC
:10114000A4220008B422000800093D00F8B50446B6
:101150000CB90120F8BD207800F00100002878D0FB
:10116000F848406800F00C0004280CD0F5484068AE
:1011700000F00C00082811D1F248406800F48030DB
:10118000B0F5803F0AD1EF48006800F40030002835
:101190005FD0606800285CD10120DBE700BF606899
:1011A000B0F5803F06D1E748006840F48030E5495B
:1011B000086028E0606858B9E248006820F4803090
:1011C000E04908600846006820F4802008601AE0C2
:1011D0006068B0F5A02F0BD1DA48006840F4802099
:1011E000D84908600846006840F4803008600AE08A
:1011F000D448006820F48030D2490860084600686E
:1012000020F48020086000BF606888B1FFF7B2FD5D
:10121000054606E0FFF7AEFD401B642801D9032018
:1012200098E7C848006800F400300028F2D010E0C9
:10123000FFF7A0FD054606E0FFF79CFD401B642874
:1012400001D9032086E7BF48006800F40030002879
:10125000F2D1207800F00200022857D1B948406846
:1012600000F00C0050B1B748406800F00C000828AE
:1012700018D1B448406800F4803098B9B14800688B
:1012800000F0020020B12069012801D0012061E7AF
:10129000AC48006820F0F800616940EAC100A94943
:1012A000086033E02069E8B10120A7490860FFF732
:1012B00061FD054606E0FFF75DFD401B022801D9F0
:1012C000032047E79F48006800F002000028F2D0A2
:1012D0009C48006820F0F800616940EAC100994923
:1012E000086013E0002098490860FFF743FD0546B9
:1012F00006E0FFF73FFD401B022801D9032029E744
:101300009048006800F002000028F2D1207800F038
:10131000080008282DD1A069B8B101208B490860C8
:10132000FFF728FD054606E0FFF724FD401B0228D5
:1013300001D903200EE78348406A00F0020000282C
:10134000F2D0012000F088FC13E000207F49086003
:10135000FFF710FD054606E0FFF70CFD401B0228D5
:1013600001D90320F6E67748406A00F00200002821
:10137000F2D1207800F00400042873D100277148CE
:10138000C06900F0805070B900BF6E48C06940F07D
:1013900080506C49C8610846C06900F080500090D8
:1013A00000BF00BF01276A48006800F48070B0B930
:1013B0006748006840F4807065490860FFF7DAFC10
:1013C000054606E0FFF7D6FC401B642801D9032040
:1013D000C0E65F48006800F480700028F2D000BFCB
:1013E000E068012806D15748006A40F001005549DD
:1013F000086227E0E06858B95248006A20F001000E
:10140000504908620846006A20F00400086219E0AA
:10141000E06805280BD14B48006A40F004004949B8
:1014200008620846006A40F0010008620AE0454888
:10143000006A20F00100434908620846006A20F073
:101440000400086200BFE068A0B1FFF793FC054606
:1014500009E0FFF78FFC401B41F28831884202D936
:10146000032077E622E03748006A00F002000028F7
:10147000EFD012E0FFF77EFC054608E0FFF77AFCAC
:10148000401B41F28831884201D9032062E62D4891
:10149000006A00F002000028F0D1012F05D1294890
:1014A000C06920F080502749C86100BFE069C8B317
:1014B0002448406800F00C00082860D0E069022849
:1014C00048D1002020490866FFF754FC054606E095
:1014D000FFF750FC401B022801D903203AE61948C7
:1014E000006800F000700028F2D1206AB0F5803F5B
:1014F00007D11448406820F40030A168084311491E
:101500004860D4E9080108430E49496821F4741180
:1015100008430C49486001200B490866FFF72AFC84
:10152000054607E03DE0FFF725FC401B022801D9F6
:1015300003200FE60348006800F000700028F2D096
:101540002FE00000001002400000424280044242AE
:1015500000700040002014490866FFF70BFC0546A8
:1015600006E0FFF707FC401B022801D90320F1E544
:101570000E48006800F000700028F2D111E0E06928
:10158000012800D1E6E50948466806F48031206A62
:10159000814204D106F47011606A814201D00120B9
:1015A000D8E50020D6E500000000424200100240CD
:1015B00070B504462546681EB0F1807F01D3012036
:1015C0000FE0681E4FF0E02148610F214FF0FF301F
:1015D00000F002FD00204FF0E02188610720086143
:1015E000002070BD30B502460B4600BF92F83C00AB
:1015F000012801D1022030BD012082F83C0000BF4B
:10160000022082F83D00106844681068816824F068
:1016100070041868044310684460144D1068A842B0
:1016200013D0134D1068A8420FD01068B0F1804F4E
:101630000BD0104D1068A84207D00F4D1068A8427B
:1016400003D00E4D1068A84205D121F080015868E2
:10165000014310688160012082F83D0000BF002036
:1016600082F83C0000BF00BFC5E70000002C01402D
:10167000003401400004004000080040000C00401D
:1016800010B504460CB9012010BD94F83D0028B9EE
:10169000002084F83C00204600F026F8022084F860
:1016A0003D00211D206800F027FB012084F8460042
:1016B00000BF84F83E0001213F2001554020015524
:1016C0004120015500BF00BF012084F842004320A3
:1016D0000155442001554520015500BF012084F8E3
:1016E0003D000020D0E7000008B5094A016891429A
:1016F0000DD100BF0749C96941F01001054AD16108
:101700001146C96901F01001009100BF00BF08BD7A
:101710000010004000100240014691F83D000128F1
:1017200001D001207047022081F83D00164B086867
:10173000984213D0154B086898420FD00868B0F152
:10174000804F0BD0124B0868984207D0114B0868A5
:10175000984203D0104B086898420CD10868806802
:1017600000F00702062A0CD00868006840F001006B
:101770000B68186005E00868006840F001000B681D
:1017800018600020CEE70000002C0140003401402A
:101790000004004000080040000C004010B5044662
:1017A0000CB9012010BDA06900B100E000BF94F8A1
:1017B000410028B9002084F84000204600F02AF8B3
:1017C000242084F841002068C06820F4005021687B
:1017D000C860204600F024FB2068006920F4904097
:1017E000216808612068406920F02A00216848616A
:1017F0002068C06840F400502168C8600020606420
:10180000202084F8410084F842000020606300BF7B
:10181000C8E7000010B586B004460020029003908F
:10182000049005901A49206888422ED100BF1948BB
:10183000806940F48040174988610846806900F457
:101840008040019000BF00BF00BF0846806940F0A3
:10185000040088610846806900F00400019000BF20
:1018600000BF48150290022003900320059002A9B2
:101870000948FFF7C7F84FF48060029000200390FA
:10188000049002A90448FFF7BDF806B010BD00009F
:101890000038014000100240000801402DE9F84FD7
:1018A00004460E46174699464FF0000A94F8410048
:1018B000202850D106B117B90120BDE8F88F0020CB
:1018C0006064212084F84100FFF754FA8246A7841F
:1018D000E784A068B0F5805F04D1206910B90025C5
:1018E000B04602E035464FF000081EE053460022A5
:1018F00080212046CDF8009000F010FB20B1202080
:1019000084F841000320D8E745B9B8F80000C0F3D7
:1019100008002168486008F1020803E0287821687F
:1019200048606D1CE08C401EE084E08C0028DDD116
:101930005346002240212046CDF8009000F0EEFAF8
:1019400020B1202084F841000320B6E7202084F84D
:1019500041000020B1E70220AFE700BFFEE7000032
:1019600010B501210148FFF7F5F910BD000C014049
:1019700000B585B00020019002900390049000BF54
:101980005248806940F010005049886108468069DB
:1019900000F01000009000BF00BF00BF0846806943
:1019A00040F0200088610846806900F02000009027
:1019B00000BF00BF00BF0846806940F00400886196
:1019C0000846806900F00400009000BF00BF00BF1F
:1019D0000846806940F0080088610846806900F088
:1019E0000800009000BF00BF002201213848FFF727
:1019F000BBF900224FF400413648FFF7B5F9002249
:101A00004FF4E0513448FFF7AFF94EF2F330019054
:101A10000320029001A93048FEF7F4FF0C2001904A
:101A2000002002900120039001A92B48FEF7EAFF55
:101A300041F6FF1001900320029001A92548FEF70E
:101A4000E1FF01200190029000200390012004900A
:101A500001A91F48FEF7D6FF4FF6FE700190032044
:101A6000029001A91A48FEF7CDFF4FF40040019003
:101A700001200290002003900120049001A9154844
:101A8000FEF7C0FF4FF4806001900120029000201B
:101A900003900120049001A90F48FEF7B3FF4FF413
:101AA000C050019011200290002003900320049068
:101AB00001A90948FEF7A6FF042001900320029027
:101AC00001A90648FEF79EFF05B000BD00100240C8
:101AD000000C0140000801400010014000140140CA
:101AE0001CB50020009001900E480F490860472067
:101AF000486000210C4881604FF6FF71C160802171
:101B00008161FFF7BDFD08B1FEF778FF002000906E
:101B1000019069460448FFF765FD08B1FEF76EFFC6
:101B20001CBD0000001000404800002010B50B480C
:101B30000B4908604FF4E13048600021084881609B
:101B4000C16001610C21416100218161C161FFF728
:101B500025FE08B1FEF752FF10BD0000003801401D
:101B60009000002000BFFEE7704700BFFEE70000C6
:101B700010B504460CB1012000E0002002464FF4ED
:101B800000410248FFF7F0F810BD000000080140D6
:101B900010B504460CB1012000E0002002464FF4CD
:101BA00080610248FFF7E0F810BD0000001001401E
:101BB00010B504460CB1012000E0002002464FF4AD
:101BC00080510248FFF7D0F810BD0000001001401E
:101BD00010B504460CB1012000E0002002464FF48D
:101BE00000610248FFF7C0F810BD0000001001407E
:101BF00010B54FF400610248FFF7A4F810BD0000D3
:101C00000010014008B5052043F239030A220321E0
:101C100000900A48FEF7BBFC0520094B1422032163
:101C200000900648FEF7B3FC06A300220F210348EC
:101C3000FEF7E9FC0148FEF70AFD08BDEC000020B4
:101C4000C7CFFFFF48656C6C6F20537461626947B2
:101C50006F2100007047000008B508490968C908ED
:101C60004FF47A72B1FBF2F14143009100BF00BF23
:101C700000994A1E00920029F9D108BD00000020F9
:101C8000704710B5FFF77CF8FEF7A0FE10BD00B559
:101C90008FB0282105A8FEF7DBFA14216846FEF76D
:101CA000D7FA01200590000406900020079001203B
:101CB000099002200C90C1030D914FF4E0110E9198
:101CC00005A8FFF743FA08B1FEF798FE0F20009031
:101CD00002200190002002904FF4806003900020C9
:101CE000049002216846FFF70DF908B1FEF786FE61
:101CF0000FB000BD7047000010B50268244B984239
:101D00000ED0244B98420BD0B0F1804F08D0224B1C
:101D1000984205D0214B984202D0214B984203D1E2
:101D200022F070024B681A43194B98420ED0194B9F
:101D300098420BD0B0F1804F08D0174B984205D095
:101D4000164B984202D0164B984203D122F44072AF
:101D5000CB681A4322F080034C6943EA0402026014
:101D60008B68C3620B688362094B984202D0094BAF
:101D7000984201D10B69036301234361036903F0B6
:101D800001031BB1036923F00103036110BD0000CF
:101D9000002C0140003401400004004000080040D5
:101DA000000C004002480068406A80B270470000A2
:101DB0004800002000BF00BF02680C3252E8002F2C
:101DC00022F4907102680C3242E80013002BF3D128
:101DD00000BF00BF00BF0268143252E8002F22F09B
:101DE00001010268143242E80013002BF3D100BF56
:101DF000016B01290ED100BF00BF02680C3252E80E
:101E0000002F22F0100102680C3242E80013002B70
:101E1000F3D100BF202180F84210002101637047F8
:101E200070B504462168096921F44051E268114304
:101E3000226811612269A1681143626941EA0205C1
:101E40002168C96841F20C62914329432268D1603C
:101E50002168496921F44071A269114322685161E6
:101E60002D4A2168914202D1FFF728F901E0FFF7DE
:101E700015F900EBC00101EB001162689200B1FBA3
:101E8000F2F100EBC00202EB001263689B00B2FBB0
:101E9000F3F26423B2FBF3F202EBC20303EB021290
:101EA000A1EB8201322202EB01116422B1FBF2F1BB
:101EB00001F0F00100EBC00202EB001263689B002E
:101EC000B2FBF3F26423B2FBF3F201EB021200EB7C
:101ED000C00101EB001163689B00B1FBF3F100EB63
:101EE000C00303EB00136668B600B3FBF6F3642689
:101EF000B3FBF6F303EBC30606EB0313A1EB83017D
:101F0000322303EB01116423B1FBF3F101F00F0164
:101F100011442268916070BD003801402DE9F843FA
:101F200004460D4617469846089E31E0701C70B373
:101F3000FEF720FFA0EB0800B04200D816B903203E
:101F4000BDE8F8832068C06800F00400F8B1802D77
:101F50001ED0402D1CD020680068C0F3C000B0B176
:101F600000BF002000902068006800902068406852
:101F7000009000BF00BF2046FFF71CFF08206064F0
:101F800000BF002084F8400000BF0120D8E7FFE731
:101F9000206800682840A84201D1012000E000200C
:101FA000B842C3D00020CBE710B54FF0FF33012279
:101FB00002490348FFF772FC10BD0000100000202A
:101FC0009000002000BFFEE702480068C0F3022036
:101FD000704700000CED00E010B5002804DB0A0794
:101FE000130E054A135406E00A07140E034A00F0C4
:101FF0000F031B1FD45410BD00E400E018ED00E0F7
:102000002DE9F0411449D1F8F000804704460D460F
:1020100000211DE0104A083202EB4110426902B96A
:1020200014E0427C8AB9027C7AB9D0E90232E71A1C
:1020300065EB02030288BA1A73F1000305D301228B
:102040000274C0E902450022427600BF481CC1B2BA
:102050000729DFDBBDE8F0810005002002460021F2
:1020600009E0074800EB41100088904201D148B2D6
:102070007047481CC1B20729F3DB4FF0FF30F7E788
:102080000805002010B500F0E9F810BDFEF784FE49
:10209000FFF7FDFDFFF76CFCFFF748FDFFF720FDA4
:1020A000FEF758F901E0FFF7EDFFFCE770B50F48C8
:1020B000B0F8EE4000200D49A1F8EE0012E094FACD
:1020C000A4F0B0FA80F60120B04084430748D0F86D
:1020D000E80000EBC605287918B1286808B128681F
:1020E000804700BF002CEAD170BD00000005002031
:1020F00070B5002544E0244800782844072190FB6F
:10210000F1F201FB1200C6B21F48083000EB461482
:10211000606900B932E0207C30B1607C20B90120D8
:102120006074002020746076607C30B3607E217E15
:10213000884222DA617E606900EBC100007948B113
:10214000617E606950F8310020B1627E616951F8AA
:1021500032008047607E401C6076607E217E88422F
:1021600001DB00206074701C072190FBF1F201FB81
:10217000120005490870012070BD00BF681CC5B27F
:10218000072DB8DB0020F7E7000500202DE9F0411E
:1021900080460D46144615B10CB1082C03DD4FF0F6
:1021A000FF30BDE8F081002107E055F8310010B99B
:1021B0004FF0FF30F5E7481CC1B2A142F5DB4046C5
:1021C000FFF74CFF0646002E02DA4FF0FF30E8E73B
:1021D000054800EB4617786910B14FF0FF30E0E793
:1021E0007D613C760020DCE70805002070B50446E0
:1021F00004B970BDF8211848FEF72AF80A201649DC
:1022000008811421144801853221A0F84810642166
:10221000A0F86810C821A0F888104FF4FA71A0F84F
:10222000A8104900A0F8C810C0F8F040A047054623
:102230000E46002007E00849083101EB4011C1E9D2
:102240000256411CC8B20728F5DB0020024981F87C
:10225000F40000BFCDE700000005002010B501200C
:10226000094981F8F40008E0FFF720FFFFF7C8FEF6
:10227000FFF73EFF00B100E000BF034890F8F40014
:102280000028F1D110BD0000000500200000000072
:102290000000000001020304060708090000000016
:1022A0000102030402030405060708090A0B0C0DCA
:1022B0000E0F101001020000000000000000002FAF
:1022C000000000000700070000147F147F140024A2
:1022D0002A7F2A12002313086462003649552250CF
:1022E00000000007000000001C2241000000412205
:1022F0001C000014083E08140008083E08080000EE
:1023000000A06000000808080808000060600000E5
:10231000002010080402003E5149453E0000427F63
:102320004000004261514946002141454B310018AF
:1023300014127F10002745454539003C4A49493071
:10234000000171090503003649494936000649492B
:10235000291E000036360000000056360000000836
:102360001422410000141414141400004122140813
:10237000000201510906003E4955592E007C1211F8
:10238000127C007F49494936003E41414122007F8D
:102390004141221C007F49494941007F0909090147
:1023A000003E4149497A007F0808087F0000417FCC
:1023B0004100002040413F01007F08142241007F7E
:1023C00040404040007F020C027F007F0408107FE5
:1023D000003E4141413E007F09090906003E41514E
:1023E000215E007F0919294600464949493100010B
:1023F000017F0101003F4040403F001F2040201F5F
:10240000003F4038403F0063140814630007087021
:10241000080700615149454300007F414100000227
:1024200004081020000041417F0000040201020462
:10243000004040404040000001020400002054548D
:102440005478007F484444380038444444200038DD
:102450004444487F00385454541800087E0901024F
:102460000018A4A4A47C007F080404780000447D24
:102470004000004080847D00007F10284400000060
:10248000417F4000007C04180478007C0804047834
:1024900000384444443800FC242424180018242420
:1024A00018FC007C0804040800485454542000041C
:1024B0003F444020003C4040207C001C2040201C29
:1024C000003C4030403C004428102844001CA0A0A0
:1024D000A07C004464544C440000087F410000008C
:1024E000007F00000000417F080000080408100879
:1024F0001025000800000020480000006C010008C2
:102500005825000848000020100C00008801000831
:1025100000127A000000000010000000010000001E
:10252000550000000000000000000000051C00082D
:10253000010000006119000801000000A91F000847
:10254000010000000000000000000000000000008A
:08255000000000000000000083
:0400000508000131BD
:00000001FF
